{
  "contractName": "uSwapp",
  "abi": [
    {
      "inputs": [],
      "payable": false,
      "stateMutability": "nonpayable",
      "type": "constructor"
    },
    {
      "anonymous": false,
      "inputs": [
        {
          "indexed": false,
          "internalType": "uint256",
          "name": "id",
          "type": "uint256"
        },
        {
          "indexed": false,
          "internalType": "string",
          "name": "title",
          "type": "string"
        },
        {
          "indexed": false,
          "internalType": "string",
          "name": "description",
          "type": "string"
        },
        {
          "indexed": false,
          "internalType": "uint256",
          "name": "ammount",
          "type": "uint256"
        },
        {
          "indexed": false,
          "internalType": "address",
          "name": "contractor",
          "type": "address"
        },
        {
          "indexed": false,
          "internalType": "address",
          "name": "creator",
          "type": "address"
        },
        {
          "indexed": false,
          "internalType": "bool",
          "name": "doneContractor",
          "type": "bool"
        },
        {
          "indexed": false,
          "internalType": "bool",
          "name": "doneCreator",
          "type": "bool"
        },
        {
          "indexed": false,
          "internalType": "bool",
          "name": "done",
          "type": "bool"
        }
      ],
      "name": "SwapCreated",
      "type": "event"
    },
    {
      "anonymous": false,
      "inputs": [
        {
          "indexed": false,
          "internalType": "address",
          "name": "userAddress",
          "type": "address"
        },
        {
          "indexed": false,
          "internalType": "string",
          "name": "username",
          "type": "string"
        }
      ],
      "name": "userCreated",
      "type": "event"
    },
    {
      "constant": true,
      "inputs": [
        {
          "internalType": "uint256",
          "name": "",
          "type": "uint256"
        }
      ],
      "name": "addresses",
      "outputs": [
        {
          "internalType": "address",
          "name": "",
          "type": "address"
        }
      ],
      "payable": false,
      "stateMutability": "view",
      "type": "function"
    },
    {
      "constant": true,
      "inputs": [],
      "name": "name",
      "outputs": [
        {
          "internalType": "string",
          "name": "",
          "type": "string"
        }
      ],
      "payable": false,
      "stateMutability": "view",
      "type": "function"
    },
    {
      "constant": true,
      "inputs": [],
      "name": "owner",
      "outputs": [
        {
          "internalType": "address payable",
          "name": "",
          "type": "address"
        }
      ],
      "payable": false,
      "stateMutability": "view",
      "type": "function"
    },
    {
      "constant": true,
      "inputs": [
        {
          "internalType": "uint256",
          "name": "",
          "type": "uint256"
        }
      ],
      "name": "swaps",
      "outputs": [
        {
          "internalType": "uint256",
          "name": "id",
          "type": "uint256"
        },
        {
          "internalType": "string",
          "name": "title",
          "type": "string"
        },
        {
          "internalType": "string",
          "name": "description",
          "type": "string"
        },
        {
          "internalType": "uint256",
          "name": "ammount",
          "type": "uint256"
        },
        {
          "internalType": "address",
          "name": "contractor",
          "type": "address"
        },
        {
          "internalType": "address",
          "name": "creator",
          "type": "address"
        },
        {
          "internalType": "bool",
          "name": "doneContractor",
          "type": "bool"
        },
        {
          "internalType": "bool",
          "name": "doneCreator",
          "type": "bool"
        },
        {
          "internalType": "bool",
          "name": "done",
          "type": "bool"
        }
      ],
      "payable": false,
      "stateMutability": "view",
      "type": "function"
    },
    {
      "constant": true,
      "inputs": [],
      "name": "swapsCount",
      "outputs": [
        {
          "internalType": "uint256",
          "name": "",
          "type": "uint256"
        }
      ],
      "payable": false,
      "stateMutability": "view",
      "type": "function"
    },
    {
      "constant": true,
      "inputs": [
        {
          "internalType": "address",
          "name": "",
          "type": "address"
        }
      ],
      "name": "users",
      "outputs": [
        {
          "internalType": "string",
          "name": "username",
          "type": "string"
        },
        {
          "internalType": "bool",
          "name": "set",
          "type": "bool"
        }
      ],
      "payable": false,
      "stateMutability": "view",
      "type": "function"
    },
    {
      "constant": true,
      "inputs": [],
      "name": "getBalance",
      "outputs": [
        {
          "internalType": "uint256",
          "name": "",
          "type": "uint256"
        }
      ],
      "payable": false,
      "stateMutability": "view",
      "type": "function"
    },
    {
      "constant": false,
      "inputs": [
        {
          "internalType": "string",
          "name": "_username",
          "type": "string"
        }
      ],
      "name": "createUser",
      "outputs": [],
      "payable": false,
      "stateMutability": "nonpayable",
      "type": "function"
    },
    {
      "constant": false,
      "inputs": [],
      "name": "storeETH",
      "outputs": [],
      "payable": true,
      "stateMutability": "payable",
      "type": "function"
    },
    {
      "constant": false,
      "inputs": [
        {
          "internalType": "string",
          "name": "_title",
          "type": "string"
        },
        {
          "internalType": "string",
          "name": "_description",
          "type": "string"
        },
        {
          "internalType": "uint256",
          "name": "_amount",
          "type": "uint256"
        },
        {
          "internalType": "address",
          "name": "_contractor",
          "type": "address"
        }
      ],
      "name": "createNewSwap",
      "outputs": [],
      "payable": true,
      "stateMutability": "payable",
      "type": "function"
    },
    {
      "constant": false,
      "inputs": [
        {
          "internalType": "uint256",
          "name": "_swapId",
          "type": "uint256"
        }
      ],
      "name": "checkValidity",
      "outputs": [],
      "payable": false,
      "stateMutability": "nonpayable",
      "type": "function"
    }
  ],
  "bytecode": "0x60806040526040518060400160405280600681526020017f75537761707000000000000000000000000000000000000000000000000000008152506000908051906020019062000051929190620000ac565b5060006001553480156200006457600080fd5b5033600260006101000a81548173ffffffffffffffffffffffffffffffffffffffff021916908373ffffffffffffffffffffffffffffffffffffffff1602179055506200015b565b828054600181600116156101000203166002900490600052602060002090601f016020900481019282601f10620000ef57805160ff191683800117855562000120565b8280016001018555821562000120579182015b828111156200011f57825182559160200191906001019062000102565b5b5090506200012f919062000133565b5090565b6200015891905b80821115620001545760008160009055506001016200013a565b5090565b90565b611548806200016b6000396000f3fe60806040526004361061009c5760003560e01c806378a96f7e1161006457806378a96f7e146103db5780638da5cb5b14610406578063a87430ba1461045d578063edf26d9b14610532578063f09c5829146105ad578063f1ad3334146107625761009c565b806306fdde03146100a157806312065fe01461013157806330640c761461015c578063507ffba5146102d857806377153fd0146103a0575b600080fd5b3480156100ad57600080fd5b506100b661076c565b6040518080602001828103825283818151815260200191508051906020019080838360005b838110156100f65780820151818401526020810190506100db565b50505050905090810190601f1680156101235780820380516001836020036101000a031916815260200191505b509250505060405180910390f35b34801561013d57600080fd5b5061014661080a565b6040518082815260200191505060405180910390f35b6102d66004803603608081101561017257600080fd5b810190808035906020019064010000000081111561018f57600080fd5b8201836020820111156101a157600080fd5b803590602001918460018302840111640100000000831117156101c357600080fd5b91908080601f016020809104026020016040519081016040528093929190818152602001838380828437600081840152601f19601f8201169050808301925050505050505091929192908035906020019064010000000081111561022657600080fd5b82018360208201111561023857600080fd5b8035906020019184600183028401116401000000008311171561025a57600080fd5b91908080601f016020809104026020016040519081016040528093929190818152602001838380828437600081840152601f19601f82011690508083019250505050505050919291929080359060200190929190803573ffffffffffffffffffffffffffffffffffffffff169060200190929190505050610812565b005b3480156102e457600080fd5b5061039e600480360360208110156102fb57600080fd5b810190808035906020019064010000000081111561031857600080fd5b82018360208201111561032a57600080fd5b8035906020019184600183028401116401000000008311171561034c57600080fd5b91908080601f016020809104026020016040519081016040528093929190818152602001838380828437600081840152601f19601f820116905080830192505050505050509192919290505050610ca7565b005b3480156103ac57600080fd5b506103d9600480360360208110156103c357600080fd5b8101908080359060200190929190505050610eba565b005b3480156103e757600080fd5b506103f0611156565b6040518082815260200191505060405180910390f35b34801561041257600080fd5b5061041b61115c565b604051808273ffffffffffffffffffffffffffffffffffffffff1673ffffffffffffffffffffffffffffffffffffffff16815260200191505060405180910390f35b34801561046957600080fd5b506104ac6004803603602081101561048057600080fd5b81019080803573ffffffffffffffffffffffffffffffffffffffff169060200190929190505050611182565b604051808060200183151515158152602001828103825284818151815260200191508051906020019080838360005b838110156104f65780820151818401526020810190506104db565b50505050905090810190601f1680156105235780820380516001836020036101000a031916815260200191505b50935050505060405180910390f35b34801561053e57600080fd5b5061056b6004803603602081101561055557600080fd5b810190808035906020019092919050505061124b565b604051808273ffffffffffffffffffffffffffffffffffffffff1673ffffffffffffffffffffffffffffffffffffffff16815260200191505060405180910390f35b3480156105b957600080fd5b506105e6600480360360208110156105d057600080fd5b8101908080359060200190929190505050611287565b604051808a815260200180602001806020018981526020018873ffffffffffffffffffffffffffffffffffffffff1673ffffffffffffffffffffffffffffffffffffffff1681526020018773ffffffffffffffffffffffffffffffffffffffff1673ffffffffffffffffffffffffffffffffffffffff16815260200186151515158152602001851515151581526020018415151515815260200183810383528b818151815260200191508051906020019080838360005b838110156106b857808201518184015260208101905061069d565b50505050905090810190601f1680156106e55780820380516001836020036101000a031916815260200191505b5083810382528a818151815260200191508051906020019080838360005b8381101561071e578082015181840152602081019050610703565b50505050905090810190601f16801561074b5780820380516001836020036101000a031916815260200191505b509b50505050505050505050505060405180910390f35b61076a61146c565b005b60008054600181600116156101000203166002900480601f0160208091040260200160405190810160405280929190818152602001828054600181600116156101000203166002900480156108025780601f106107d757610100808354040283529160200191610802565b820191906000526020600020905b8154815290600101906020018083116107e557829003601f168201915b505050505081565b600047905090565b60008211610888576040517f08c379a00000000000000000000000000000000000000000000000000000000081526004018080602001828103825260128152602001807f616d6f756e742063616e6e6f742062652030000000000000000000000000000081525060200191505060405180910390fd5b60008451141561089757600080fd5b6000835114156108a657600080fd5b600073ffffffffffffffffffffffffffffffffffffffff168173ffffffffffffffffffffffffffffffffffffffff1614156108e057600080fd5b600073ffffffffffffffffffffffffffffffffffffffff163373ffffffffffffffffffffffffffffffffffffffff16141561091a57600080fd5b60016000815480929190600101919050555060405180610120016040528060015481526020018581526020018481526020018381526020018273ffffffffffffffffffffffffffffffffffffffff1681526020013373ffffffffffffffffffffffffffffffffffffffff168152602001600015158152602001600015158152602001600015158152506005600060015481526020019081526020016000206000820151816000015560208201518160010190805190602001906109de92919061146e565b5060408201518160020190805190602001906109fb92919061146e565b506060820151816003015560808201518160040160006101000a81548173ffffffffffffffffffffffffffffffffffffffff021916908373ffffffffffffffffffffffffffffffffffffffff16021790555060a08201518160050160006101000a81548173ffffffffffffffffffffffffffffffffffffffff021916908373ffffffffffffffffffffffffffffffffffffffff16021790555060c08201518160050160146101000a81548160ff02191690831515021790555060e08201518160050160156101000a81548160ff0219169083151502179055506101008201518160050160166101000a81548160ff0219169083151502179055509050507fcc0b199537e3a37c234a4799dc116e5e4053bf4294b0b2804031709b98d1aa5660015485858585336000806000604051808a815260200180602001806020018981526020018873ffffffffffffffffffffffffffffffffffffffff1673ffffffffffffffffffffffffffffffffffffffff1681526020018773ffffffffffffffffffffffffffffffffffffffff1673ffffffffffffffffffffffffffffffffffffffff16815260200186151515158152602001851515151581526020018415151515815260200183810383528b818151815260200191508051906020019080838360005b83811015610bf8578082015181840152602081019050610bdd565b50505050905090810190601f168015610c255780820380516001836020036101000a031916815260200191505b5083810382528a818151815260200191508051906020019080838360005b83811015610c5e578082015181840152602081019050610c43565b50505050905090810190601f168015610c8b5780820380516001836020036101000a031916815260200191505b509b50505050505050505050505060405180910390a150505050565b600081511415610cb657600080fd5b600073ffffffffffffffffffffffffffffffffffffffff163373ffffffffffffffffffffffffffffffffffffffff161415610cf057600080fd5b6000600460003373ffffffffffffffffffffffffffffffffffffffff1673ffffffffffffffffffffffffffffffffffffffff16815260200190815260200160002090508060010160009054906101000a900460ff1615610d4f57600080fd5b604051806040016040528083815260200160011515815250600460003373ffffffffffffffffffffffffffffffffffffffff1673ffffffffffffffffffffffffffffffffffffffff1681526020019081526020016000206000820151816000019080519060200190610dc292919061146e565b5060208201518160010160006101000a81548160ff0219169083151502179055509050507f793452bfa09c2f1473de9e71cf726590fccd45eb04c4be138b36826dc5d8e6263383604051808373ffffffffffffffffffffffffffffffffffffffff1673ffffffffffffffffffffffffffffffffffffffff16815260200180602001828103825283818151815260200191508051906020019080838360005b83811015610e7b578082015181840152602081019050610e60565b50505050905090810190601f168015610ea85780820380516001836020036101000a031916815260200191505b50935050505060405180910390a15050565b6005600082815260200190815260200160002060040160009054906101000a900473ffffffffffffffffffffffffffffffffffffffff1673ffffffffffffffffffffffffffffffffffffffff163373ffffffffffffffffffffffffffffffffffffffff161480610f8b57506005600082815260200190815260200160002060050160009054906101000a900473ffffffffffffffffffffffffffffffffffffffff1673ffffffffffffffffffffffffffffffffffffffff163373ffffffffffffffffffffffffffffffffffffffff16145b610f9457600080fd5b6005600082815260200190815260200160002060040160009054906101000a900473ffffffffffffffffffffffffffffffffffffffff1673ffffffffffffffffffffffffffffffffffffffff163373ffffffffffffffffffffffffffffffffffffffff16141561102e5760016005600083815260200190815260200160002060050160146101000a81548160ff0219169083151502179055505b6005600082815260200190815260200160002060050160009054906101000a900473ffffffffffffffffffffffffffffffffffffffff1673ffffffffffffffffffffffffffffffffffffffff163373ffffffffffffffffffffffffffffffffffffffff1614156110c85760016005600083815260200190815260200160002060050160156101000a81548160ff0219169083151502179055505b600115156005600083815260200190815260200160002060050160159054906101000a900460ff1615151480156111265750600115156005600083815260200190815260200160002060050160149054906101000a900460ff161515145b1561115357600115156005600083815260200190815260200160002060050160169054906101000a905050505b50565b60015481565b600260009054906101000a900473ffffffffffffffffffffffffffffffffffffffff1681565b6004602052806000526040600020600091509050806000018054600181600116156101000203166002900480601f01602080910402602001604051908101604052809291908181526020018280546001816001161561010002031660029004801561122e5780601f106112035761010080835404028352916020019161122e565b820191906000526020600020905b81548152906001019060200180831161121157829003601f168201915b5050505050908060010160009054906101000a900460ff16905082565b6003818154811061125857fe5b906000526020600020016000915054906101000a900473ffffffffffffffffffffffffffffffffffffffff1681565b6005602052806000526040600020600091509050806000015490806001018054600181600116156101000203166002900480601f0160208091040260200160405190810160405280929190818152602001828054600181600116156101000203166002900480156113395780601f1061130e57610100808354040283529160200191611339565b820191906000526020600020905b81548152906001019060200180831161131c57829003601f168201915b505050505090806002018054600181600116156101000203166002900480601f0160208091040260200160405190810160405280929190818152602001828054600181600116156101000203166002900480156113d75780601f106113ac576101008083540402835291602001916113d7565b820191906000526020600020905b8154815290600101906020018083116113ba57829003601f168201915b5050505050908060030154908060040160009054906101000a900473ffffffffffffffffffffffffffffffffffffffff16908060050160009054906101000a900473ffffffffffffffffffffffffffffffffffffffff16908060050160149054906101000a900460ff16908060050160159054906101000a900460ff16908060050160169054906101000a900460ff16905089565b565b828054600181600116156101000203166002900490600052602060002090601f016020900481019282601f106114af57805160ff19168380011785556114dd565b828001600101855582156114dd579182015b828111156114dc5782518255916020019190600101906114c1565b5b5090506114ea91906114ee565b5090565b61151091905b8082111561150c5760008160009055506001016114f4565b5090565b9056fea265627a7a723158201e99cb9f541d73325ab9ad1fcc69f884b130f69e4e08fe04566f580cd57c62a364736f6c63430005100032",
  "source": "pragma solidity >=0.5.0;\n\ncontract uSwapp {\n    string public name = \"uSwapp\";\n    uint256 public swapsCount = 0;\n\n    address payable public owner;\n\n    address[] public addresses;\n\n    constructor() public {\n        owner = msg.sender;\n    }\n\n    // Get contract balance\n    function getBalance() public view returns (uint256) {\n        return address(this).balance;\n    }\n\n    // Set user\n    mapping(address => User) public users;\n\n    // Creat user\n    function createUser(string memory _username) public {\n        require(bytes(_username).length != 0);\n        // Make sure uploader address exists\n        require(msg.sender != address(0));\n        User storage user = users[msg.sender];\n        // Check that the user did not already exist:\n        require(!user.set);\n        //Store the user\n        users[msg.sender] = User({username: _username, set: true});\n        emit userCreated(msg.sender, _username);\n    }\n\n    event userCreated(address userAddress, string username);\n\n    struct User {\n        string username;\n        bool set; // This boolean is used to differentiate between unset and zero struct values\n    }\n\n    mapping(uint256 => Swap) public swaps;\n\n    struct Swap {\n        uint256 id;\n        string title;\n        string description;\n        uint256 ammount;\n        address contractor;\n        address creator;\n        bool doneContractor;\n        bool doneCreator;\n        bool done;\n    }\n\n    event SwapCreated(\n        uint256 id,\n        string title,\n        string description,\n        uint256 ammount,\n        address contractor,\n        address creator,\n        bool doneContractor,\n        bool doneCreator,\n        bool done\n    );\n\n    // Create a new contract\n    // Todo Widhtdraw the ammount for the contract\n    function storeETH() public payable {}\n\n    // Think obout how is making the contract and how we could do it so it works\n    // In boths ways\n    function createNewSwap(\n        string memory _title,\n        string memory _description,\n        uint256 _amount,\n        address _contractor\n    ) public payable {\n        require(_amount > 0, \"amount cannot be 0\");\n        // check validity of swap info\n        require(bytes(_title).length != 0);\n        require(bytes(_description).length != 0);\n        // Check that contract address exists\n        require(_contractor != address(0));\n        // Make sure uploader address exists\n        require(msg.sender != address(0));\n\n        swapsCount++;\n        swaps[swapsCount] = Swap(\n            swapsCount,\n            _title,\n            _description,\n            _amount,\n            _contractor,\n            msg.sender,\n            false,\n            false,\n            false\n        );\n        // emit event\n        emit SwapCreated(\n            swapsCount,\n            _title,\n            _description,\n            _amount,\n            _contractor,\n            msg.sender,\n            false,\n            false,\n            false\n        );\n    }\n\n    // Both parties check the list on done\n    function checkValidity(uint256 _swapId) public {\n        // Check that the sender belong two the contract\n        require(\n            msg.sender == swaps[_swapId].contractor ||\n                msg.sender == swaps[_swapId].creator\n        );\n        // check if is the contractor\n        if (msg.sender == swaps[_swapId].contractor) {\n            swaps[_swapId].doneContractor = true;\n        }\n        // Check if is the creator\n        if (msg.sender == swaps[_swapId].creator) {\n            swaps[_swapId].doneCreator = true;\n        }\n        // If both are check are check mark done the contract\n        if (\n            swaps[_swapId].doneCreator == true &&\n            swaps[_swapId].doneContractor == true\n        ) {\n            swaps[_swapId].done == true;\n        }\n    }\n\n    // Introduce tokens to the contract\n    // Set other user contract\n\n    // Transfer token if the job is done\n}\n",
  "sourcePath": "/Users/davidbarrero/Desktop/fun/uSwapp/src/contracts/Uswapp.sol",
  "compiler": {
    "name": "solc",
    "version": "0.5.16+commit.9c3226ce.Emscripten.clang"
  },
  "schemaVersion": "3.3.2",
  "updatedAt": "2020-11-21T17:46:10.989Z",
  "networkType": "ethereum",
  "devdoc": {
    "methods": {}
  },
  "userdoc": {
    "methods": {}
  }
}