{
  "contractName": "uSwapp",
  "abi": [
    {
      "inputs": [],
      "payable": false,
      "stateMutability": "nonpayable",
      "type": "constructor"
    },
    {
      "anonymous": false,
      "inputs": [
        {
          "indexed": false,
          "internalType": "uint256",
          "name": "id",
          "type": "uint256"
        },
        {
          "indexed": false,
          "internalType": "string",
          "name": "description",
          "type": "string"
        },
        {
          "indexed": false,
          "internalType": "uint256",
          "name": "amount",
          "type": "uint256"
        },
        {
          "indexed": false,
          "internalType": "address payable",
          "name": "contractor",
          "type": "address"
        },
        {
          "indexed": false,
          "internalType": "address",
          "name": "creator",
          "type": "address"
        },
        {
          "indexed": false,
          "internalType": "bool",
          "name": "doneContractor",
          "type": "bool"
        },
        {
          "indexed": false,
          "internalType": "bool",
          "name": "doneCreator",
          "type": "bool"
        },
        {
          "indexed": false,
          "internalType": "bool",
          "name": "done",
          "type": "bool"
        }
      ],
      "name": "SwapCreated",
      "type": "event"
    },
    {
      "anonymous": false,
      "inputs": [
        {
          "indexed": false,
          "internalType": "uint256",
          "name": "_swapId",
          "type": "uint256"
        },
        {
          "indexed": false,
          "internalType": "uint256",
          "name": "amount",
          "type": "uint256"
        }
      ],
      "name": "SwapDone",
      "type": "event"
    },
    {
      "anonymous": false,
      "inputs": [
        {
          "indexed": false,
          "internalType": "address",
          "name": "userAddress",
          "type": "address"
        },
        {
          "indexed": false,
          "internalType": "string",
          "name": "username",
          "type": "string"
        }
      ],
      "name": "userCreated",
      "type": "event"
    },
    {
      "constant": true,
      "inputs": [
        {
          "internalType": "uint256",
          "name": "",
          "type": "uint256"
        }
      ],
      "name": "addresses",
      "outputs": [
        {
          "internalType": "address",
          "name": "",
          "type": "address"
        }
      ],
      "payable": false,
      "stateMutability": "view",
      "type": "function"
    },
    {
      "constant": true,
      "inputs": [],
      "name": "name",
      "outputs": [
        {
          "internalType": "string",
          "name": "",
          "type": "string"
        }
      ],
      "payable": false,
      "stateMutability": "view",
      "type": "function"
    },
    {
      "constant": true,
      "inputs": [],
      "name": "owner",
      "outputs": [
        {
          "internalType": "address payable",
          "name": "",
          "type": "address"
        }
      ],
      "payable": false,
      "stateMutability": "view",
      "type": "function"
    },
    {
      "constant": true,
      "inputs": [],
      "name": "recipient",
      "outputs": [
        {
          "internalType": "address payable",
          "name": "",
          "type": "address"
        }
      ],
      "payable": false,
      "stateMutability": "view",
      "type": "function"
    },
    {
      "constant": true,
      "inputs": [
        {
          "internalType": "uint256",
          "name": "",
          "type": "uint256"
        }
      ],
      "name": "swaps",
      "outputs": [
        {
          "internalType": "uint256",
          "name": "id",
          "type": "uint256"
        },
        {
          "internalType": "string",
          "name": "description",
          "type": "string"
        },
        {
          "internalType": "uint256",
          "name": "amount",
          "type": "uint256"
        },
        {
          "internalType": "address payable",
          "name": "contractor",
          "type": "address"
        },
        {
          "internalType": "address",
          "name": "creator",
          "type": "address"
        },
        {
          "internalType": "bool",
          "name": "doneContractor",
          "type": "bool"
        },
        {
          "internalType": "bool",
          "name": "doneCreator",
          "type": "bool"
        },
        {
          "internalType": "bool",
          "name": "done",
          "type": "bool"
        }
      ],
      "payable": false,
      "stateMutability": "view",
      "type": "function"
    },
    {
      "constant": true,
      "inputs": [],
      "name": "swapsCount",
      "outputs": [
        {
          "internalType": "uint256",
          "name": "",
          "type": "uint256"
        }
      ],
      "payable": false,
      "stateMutability": "view",
      "type": "function"
    },
    {
      "constant": true,
      "inputs": [
        {
          "internalType": "address",
          "name": "",
          "type": "address"
        }
      ],
      "name": "users",
      "outputs": [
        {
          "internalType": "string",
          "name": "username",
          "type": "string"
        },
        {
          "internalType": "bool",
          "name": "set",
          "type": "bool"
        }
      ],
      "payable": false,
      "stateMutability": "view",
      "type": "function"
    },
    {
      "constant": true,
      "inputs": [],
      "name": "getBalance",
      "outputs": [
        {
          "internalType": "uint256",
          "name": "",
          "type": "uint256"
        }
      ],
      "payable": false,
      "stateMutability": "view",
      "type": "function"
    },
    {
      "constant": false,
      "inputs": [
        {
          "internalType": "string",
          "name": "_username",
          "type": "string"
        }
      ],
      "name": "createUser",
      "outputs": [],
      "payable": false,
      "stateMutability": "nonpayable",
      "type": "function"
    },
    {
      "constant": false,
      "inputs": [
        {
          "internalType": "string",
          "name": "_description",
          "type": "string"
        },
        {
          "internalType": "uint256",
          "name": "_amount",
          "type": "uint256"
        },
        {
          "internalType": "address payable",
          "name": "_contractor",
          "type": "address"
        }
      ],
      "name": "createNewSwap",
      "outputs": [],
      "payable": true,
      "stateMutability": "payable",
      "type": "function"
    },
    {
      "constant": false,
      "inputs": [
        {
          "internalType": "uint256",
          "name": "_swapId",
          "type": "uint256"
        }
      ],
      "name": "checkValidity",
      "outputs": [],
      "payable": false,
      "stateMutability": "nonpayable",
      "type": "function"
    }
  ],
  "bytecode": "0x60806040526040518060400160405280600681526020017f75537761707000000000000000000000000000000000000000000000000000008152506000908051906020019062000051929190620000ad565b506104d26001553480156200006557600080fd5b5033600260006101000a81548173ffffffffffffffffffffffffffffffffffffffff021916908373ffffffffffffffffffffffffffffffffffffffff1602179055506200015c565b828054600181600116156101000203166002900490600052602060002090601f016020900481019282601f10620000f057805160ff191683800117855562000121565b8280016001018555821562000121579182015b828111156200012057825182559160200191906001019062000103565b5b50905062000130919062000134565b5090565b6200015991905b80821115620001555760008160009055506001016200013b565b5090565b90565b6114d2806200016c6000396000f3fe60806040526004361061009c5760003560e01c806378a96f7e1161006457806378a96f7e146102b65780638da5cb5b146102e1578063a87430ba14610338578063e7a6a4f81461040d578063edf26d9b146104f2578063f09c58291461056d5761009c565b806306fdde03146100a157806312065fe014610131578063507ffba51461015c57806366d003ac1461022457806377153fd01461027b575b600080fd5b3480156100ad57600080fd5b506100b66106b6565b6040518080602001828103825283818151815260200191508051906020019080838360005b838110156100f65780820151818401526020810190506100db565b50505050905090810190601f1680156101235780820380516001836020036101000a031916815260200191505b509250505060405180910390f35b34801561013d57600080fd5b50610146610754565b6040518082815260200191505060405180910390f35b34801561016857600080fd5b506102226004803603602081101561017f57600080fd5b810190808035906020019064010000000081111561019c57600080fd5b8201836020820111156101ae57600080fd5b803590602001918460018302840111640100000000831117156101d057600080fd5b91908080601f016020809104026020016040519081016040528093929190818152602001838380828437600081840152601f19601f82011690508083019250505050505050919291929050505061075c565b005b34801561023057600080fd5b5061023961096f565b604051808273ffffffffffffffffffffffffffffffffffffffff1673ffffffffffffffffffffffffffffffffffffffff16815260200191505060405180910390f35b34801561028757600080fd5b506102b46004803603602081101561029e57600080fd5b8101908080359060200190929190505050610995565b005b3480156102c257600080fd5b506102cb610d8c565b6040518082815260200191505060405180910390f35b3480156102ed57600080fd5b506102f6610d92565b604051808273ffffffffffffffffffffffffffffffffffffffff1673ffffffffffffffffffffffffffffffffffffffff16815260200191505060405180910390f35b34801561034457600080fd5b506103876004803603602081101561035b57600080fd5b81019080803573ffffffffffffffffffffffffffffffffffffffff169060200190929190505050610db8565b604051808060200183151515158152602001828103825284818151815260200191508051906020019080838360005b838110156103d15780820151818401526020810190506103b6565b50505050905090810190601f1680156103fe5780820380516001836020036101000a031916815260200191505b50935050505060405180910390f35b6104f06004803603606081101561042357600080fd5b810190808035906020019064010000000081111561044057600080fd5b82018360208201111561045257600080fd5b8035906020019184600183028401116401000000008311171561047457600080fd5b91908080601f016020809104026020016040519081016040528093929190818152602001838380828437600081840152601f19601f82011690508083019250505050505050919291929080359060200190929190803573ffffffffffffffffffffffffffffffffffffffff169060200190929190505050610e81565b005b3480156104fe57600080fd5b5061052b6004803603602081101561051557600080fd5b8101908080359060200190929190505050611275565b604051808273ffffffffffffffffffffffffffffffffffffffff1673ffffffffffffffffffffffffffffffffffffffff16815260200191505060405180910390f35b34801561057957600080fd5b506105a66004803603602081101561059057600080fd5b81019080803590602001909291905050506112b1565b60405180898152602001806020018881526020018773ffffffffffffffffffffffffffffffffffffffff1673ffffffffffffffffffffffffffffffffffffffff1681526020018673ffffffffffffffffffffffffffffffffffffffff1673ffffffffffffffffffffffffffffffffffffffff168152602001851515151581526020018415151515815260200183151515158152602001828103825289818151815260200191508051906020019080838360005b83811015610674578082015181840152602081019050610659565b50505050905090810190601f1680156106a15780820380516001836020036101000a031916815260200191505b50995050505050505050505060405180910390f35b60008054600181600116156101000203166002900480601f01602080910402602001604051908101604052809291908181526020018280546001816001161561010002031660029004801561074c5780601f106107215761010080835404028352916020019161074c565b820191906000526020600020905b81548152906001019060200180831161072f57829003601f168201915b505050505081565b600047905090565b60008151141561076b57600080fd5b600073ffffffffffffffffffffffffffffffffffffffff163373ffffffffffffffffffffffffffffffffffffffff1614156107a557600080fd5b6000600460003373ffffffffffffffffffffffffffffffffffffffff1673ffffffffffffffffffffffffffffffffffffffff16815260200190815260200160002090508060010160009054906101000a900460ff161561080457600080fd5b604051806040016040528083815260200160011515815250600460003373ffffffffffffffffffffffffffffffffffffffff1673ffffffffffffffffffffffffffffffffffffffff16815260200190815260200160002060008201518160000190805190602001906108779291906113f8565b5060208201518160010160006101000a81548160ff0219169083151502179055509050507f793452bfa09c2f1473de9e71cf726590fccd45eb04c4be138b36826dc5d8e6263383604051808373ffffffffffffffffffffffffffffffffffffffff1673ffffffffffffffffffffffffffffffffffffffff16815260200180602001828103825283818151815260200191508051906020019080838360005b83811015610930578082015181840152602081019050610915565b50505050905090810190601f16801561095d5780820380516001836020036101000a031916815260200191505b50935050505060405180910390a15050565b600360009054906101000a900473ffffffffffffffffffffffffffffffffffffffff1681565b6000809050600080905060008390506006600082815260200190815260200160002060030160009054906101000a900473ffffffffffffffffffffffffffffffffffffffff1673ffffffffffffffffffffffffffffffffffffffff163373ffffffffffffffffffffffffffffffffffffffff161480610a7557506006600082815260200190815260200160002060040160009054906101000a900473ffffffffffffffffffffffffffffffffffffffff1673ffffffffffffffffffffffffffffffffffffffff163373ffffffffffffffffffffffffffffffffffffffff16145b610a7e57600080fd5b6006600082815260200190815260200160002060030160009054906101000a900473ffffffffffffffffffffffffffffffffffffffff1673ffffffffffffffffffffffffffffffffffffffff163373ffffffffffffffffffffffffffffffffffffffff161415610b1c5760016006600083815260200190815260200160002060040160146101000a81548160ff021916908315150217905550600191505b6006600082815260200190815260200160002060040160009054906101000a900473ffffffffffffffffffffffffffffffffffffffff1673ffffffffffffffffffffffffffffffffffffffff163373ffffffffffffffffffffffffffffffffffffffff161415610bba5760016006600083815260200190815260200160002060040160156101000a81548160ff021916908315150217905550600192505b60011515831515148015610bd2575060011515821515145b15610d8657600015156006600083815260200190815260200160002060040160169054906101000a900460ff16151514610c0b57600080fd5b60016006600083815260200190815260200160002060040160166101000a81548160ff0219169083151502179055506006600082815260200190815260200160002060030160009054906101000a900473ffffffffffffffffffffffffffffffffffffffff16600360006101000a81548173ffffffffffffffffffffffffffffffffffffffff021916908373ffffffffffffffffffffffffffffffffffffffff1602179055507fc1b97687ea4e9ed33df69da0ec9eb95ad3783d25b168033833fba064f4fb435a816006600084815260200190815260200160002060020154604051808381526020018281526020019250505060405180910390a1600360009054906101000a900473ffffffffffffffffffffffffffffffffffffffff1673ffffffffffffffffffffffffffffffffffffffff166108fc60066000878152602001908152602001600020600201549081150290604051600060405180830381858888f19350505050158015610d84573d6000803e3d6000fd5b505b50505050565b60015481565b600260009054906101000a900473ffffffffffffffffffffffffffffffffffffffff1681565b6004602052806000526040600020600091509050806000018054600181600116156101000203166002900480601f016020809104026020016040519081016040528092919081815260200182805460018160011615610100020316600290048015610e645780601f10610e3957610100808354040283529160200191610e64565b820191906000526020600020905b815481529060010190602001808311610e4757829003601f168201915b5050505050908060010160009054906101000a900460ff16905082565b60008211610ef7576040517f08c379a00000000000000000000000000000000000000000000000000000000081526004018080602001828103825260128152602001807f616d6f756e742063616e6e6f742062652030000000000000000000000000000081525060200191505060405180910390fd5b600083511415610f0657600080fd5b600073ffffffffffffffffffffffffffffffffffffffff168173ffffffffffffffffffffffffffffffffffffffff161415610f4057600080fd5b600073ffffffffffffffffffffffffffffffffffffffff163373ffffffffffffffffffffffffffffffffffffffff161415610f7a57600080fd5b60016000815480929190600101919050555060405180610100016040528060015481526020018481526020018381526020018273ffffffffffffffffffffffffffffffffffffffff1681526020013373ffffffffffffffffffffffffffffffffffffffff168152602001600015158152602001600015158152602001600015158152506006600060015481526020019081526020016000206000820151816000015560208201518160010190805190602001906110389291906113f8565b506040820151816002015560608201518160030160006101000a81548173ffffffffffffffffffffffffffffffffffffffff021916908373ffffffffffffffffffffffffffffffffffffffff16021790555060808201518160040160006101000a81548173ffffffffffffffffffffffffffffffffffffffff021916908373ffffffffffffffffffffffffffffffffffffffff16021790555060a08201518160040160146101000a81548160ff02191690831515021790555060c08201518160040160156101000a81548160ff02191690831515021790555060e08201518160040160166101000a81548160ff0219169083151502179055509050507f1defd06f8693406fb914c630a30bfc9fbb3e28791f78d2856cf20d8b6c47979760015484848433600080600060405180898152602001806020018881526020018773ffffffffffffffffffffffffffffffffffffffff1673ffffffffffffffffffffffffffffffffffffffff1681526020018673ffffffffffffffffffffffffffffffffffffffff1673ffffffffffffffffffffffffffffffffffffffff168152602001851515151581526020018415151515815260200183151515158152602001828103825289818151815260200191508051906020019080838360005b8381101561122f578082015181840152602081019050611214565b50505050905090810190601f16801561125c5780820380516001836020036101000a031916815260200191505b50995050505050505050505060405180910390a1505050565b6005818154811061128257fe5b906000526020600020016000915054906101000a900473ffffffffffffffffffffffffffffffffffffffff1681565b6006602052806000526040600020600091509050806000015490806001018054600181600116156101000203166002900480601f0160208091040260200160405190810160405280929190818152602001828054600181600116156101000203166002900480156113635780601f1061133857610100808354040283529160200191611363565b820191906000526020600020905b81548152906001019060200180831161134657829003601f168201915b5050505050908060020154908060030160009054906101000a900473ffffffffffffffffffffffffffffffffffffffff16908060040160009054906101000a900473ffffffffffffffffffffffffffffffffffffffff16908060040160149054906101000a900460ff16908060040160159054906101000a900460ff16908060040160169054906101000a900460ff16905088565b828054600181600116156101000203166002900490600052602060002090601f016020900481019282601f1061143957805160ff1916838001178555611467565b82800160010185558215611467579182015b8281111561146657825182559160200191906001019061144b565b5b5090506114749190611478565b5090565b61149a91905b8082111561149657600081600090555060010161147e565b5090565b9056fea265627a7a72315820091484a958fa3732636c2525c1d043a339bd1220bd18f86ad8e46ac2f511934764736f6c63430005100032",
  "source": "pragma solidity >=0.5.0;\n\ncontract uSwapp {\n    string public name = \"uSwapp\";\n    uint256 public swapsCount = 1234;\n\n    address payable public owner;\n    address payable public recipient; // The account receiving the payments.\n\n    // Set user\n    mapping(address => User) public users;\n\n    address[] public addresses;\n\n    mapping(uint256 => Swap) public swaps;\n\n    constructor() public {\n        owner = msg.sender;\n    }\n\n    // Get contract balance\n    function getBalance() public view returns (uint256) {\n        return address(this).balance;\n    }\n\n    // Creat user\n    function createUser(string memory _username) public {\n        require(bytes(_username).length != 0);\n        // Make sure uploader address exists\n        require(msg.sender != address(0));\n        User storage user = users[msg.sender];\n        // Check that the user did not already exist:\n        require(!user.set);\n        //Store the user\n        users[msg.sender] = User({username: _username, set: true});\n        emit userCreated(msg.sender, _username);\n    }\n\n    event userCreated(address userAddress, string username);\n\n    struct User {\n        string username;\n        bool set; // This boolean is used to differentiate between unset and zero struct values\n    }\n\n    struct Swap {\n        uint256 id;\n        string description;\n        uint256 amount;\n        address payable contractor;\n        address creator;\n        bool doneContractor;\n        bool doneCreator;\n        bool done;\n    }\n\n    event SwapCreated(\n        uint256 id,\n        string description,\n        uint256 amount,\n        address payable contractor,\n        address creator,\n        bool doneContractor,\n        bool doneCreator,\n        bool done\n    );\n\n    event SwapDone(uint256 _swapId, uint256 amount);\n\n    // Create a new contract\n\n    // Think obout how is making the contract and how we could do it so it works\n    // In boths ways\n    function createNewSwap(\n        string memory _description,\n        uint256 _amount,\n        address payable _contractor\n    ) public payable {\n        require(_amount > 0, \"amount cannot be 0\");\n        // check validity of swap info\n\n        require(bytes(_description).length != 0);\n        // Check that contract address exists\n        require(_contractor != address(0));\n        // Make sure uploader address exists\n        require(msg.sender != address(0));\n\n        swapsCount++;\n        swaps[swapsCount] = Swap(\n            swapsCount,\n            _description,\n            _amount,\n            _contractor,\n            msg.sender,\n            false,\n            false,\n            false\n        );\n        // emit event\n        emit SwapCreated(\n            swapsCount,\n            _description,\n            _amount,\n            _contractor,\n            msg.sender,\n            false,\n            false,\n            false\n        );\n    }\n\n    // Both parties check the list on done\n    function checkValidity(uint256 _swapId) public {\n        bool creatorDone = false;\n        bool contractorDone = false;\n        uint256 id = _swapId;\n        // Check that the sender belong two the contract\n        require(\n            msg.sender == swaps[id].contractor ||\n                msg.sender == swaps[id].creator\n        );\n        // check if is the contractor\n        if (msg.sender == swaps[id].contractor) {\n            swaps[id].doneContractor = true;\n            contractorDone = true;\n        }\n        // Check if is the creator\n        if (msg.sender == swaps[id].creator) {\n            swaps[id].doneCreator = true;\n            creatorDone = true;\n        }\n        // If both are check are check mark done the contract\n        if (creatorDone == true && contractorDone == true) {\n            require(swaps[id].done == false);\n            swaps[id].done = true;\n            recipient = swaps[id].contractor;\n\n            // Withdraw the amount to the reciver wich is specify in the constructor of the contract\n            emit SwapDone(id, swaps[id].amount);\n            recipient.transfer(swaps[_swapId].amount);\n        }\n    }\n\n    // Introduce tokens to the contract\n    // Set other user contract\n\n    // Transfer token if the job is done\n}\n",
  "sourcePath": "/Users/davidbarrero/Desktop/fun/uSwapp/src/contracts/Uswapp.sol",
  "compiler": {
    "name": "solc",
    "version": "0.5.16+commit.9c3226ce.Emscripten.clang"
  },
  "schemaVersion": "3.3.2",
  "updatedAt": "2020-12-03T03:23:28.681Z",
  "networkType": "ethereum",
  "devdoc": {
    "methods": {}
  },
  "userdoc": {
    "methods": {}
  }
}