{
  "contractName": "uSwapp",
  "abi": [
    {
      "inputs": [],
      "payable": false,
      "stateMutability": "nonpayable",
      "type": "constructor"
    },
    {
      "anonymous": false,
      "inputs": [
        {
          "indexed": false,
          "internalType": "uint256",
          "name": "id",
          "type": "uint256"
        },
        {
          "indexed": false,
          "internalType": "string",
          "name": "title",
          "type": "string"
        },
        {
          "indexed": false,
          "internalType": "string",
          "name": "description",
          "type": "string"
        },
        {
          "indexed": false,
          "internalType": "uint256",
          "name": "ammount",
          "type": "uint256"
        },
        {
          "indexed": false,
          "internalType": "address",
          "name": "contractor",
          "type": "address"
        },
        {
          "indexed": false,
          "internalType": "address",
          "name": "creator",
          "type": "address"
        },
        {
          "indexed": false,
          "internalType": "bool",
          "name": "doneContractor",
          "type": "bool"
        },
        {
          "indexed": false,
          "internalType": "bool",
          "name": "doneCreator",
          "type": "bool"
        },
        {
          "indexed": false,
          "internalType": "bool",
          "name": "done",
          "type": "bool"
        }
      ],
      "name": "SwapCreated",
      "type": "event"
    },
    {
      "anonymous": false,
      "inputs": [
        {
          "indexed": false,
          "internalType": "address",
          "name": "userAddress",
          "type": "address"
        },
        {
          "indexed": false,
          "internalType": "string",
          "name": "username",
          "type": "string"
        }
      ],
      "name": "userCreated",
      "type": "event"
    },
    {
      "constant": true,
      "inputs": [
        {
          "internalType": "uint256",
          "name": "",
          "type": "uint256"
        }
      ],
      "name": "addresses",
      "outputs": [
        {
          "internalType": "address",
          "name": "",
          "type": "address"
        }
      ],
      "payable": false,
      "stateMutability": "view",
      "type": "function"
    },
    {
      "constant": true,
      "inputs": [],
      "name": "name",
      "outputs": [
        {
          "internalType": "string",
          "name": "",
          "type": "string"
        }
      ],
      "payable": false,
      "stateMutability": "view",
      "type": "function"
    },
    {
      "constant": true,
      "inputs": [
        {
          "internalType": "uint256",
          "name": "",
          "type": "uint256"
        }
      ],
      "name": "swaps",
      "outputs": [
        {
          "internalType": "uint256",
          "name": "id",
          "type": "uint256"
        },
        {
          "internalType": "string",
          "name": "title",
          "type": "string"
        },
        {
          "internalType": "string",
          "name": "description",
          "type": "string"
        },
        {
          "internalType": "uint256",
          "name": "ammount",
          "type": "uint256"
        },
        {
          "internalType": "address",
          "name": "contractor",
          "type": "address"
        },
        {
          "internalType": "address",
          "name": "creator",
          "type": "address"
        },
        {
          "internalType": "bool",
          "name": "doneContractor",
          "type": "bool"
        },
        {
          "internalType": "bool",
          "name": "doneCreator",
          "type": "bool"
        },
        {
          "internalType": "bool",
          "name": "done",
          "type": "bool"
        }
      ],
      "payable": false,
      "stateMutability": "view",
      "type": "function"
    },
    {
      "constant": true,
      "inputs": [],
      "name": "swapsCount",
      "outputs": [
        {
          "internalType": "uint256",
          "name": "",
          "type": "uint256"
        }
      ],
      "payable": false,
      "stateMutability": "view",
      "type": "function"
    },
    {
      "constant": true,
      "inputs": [
        {
          "internalType": "address",
          "name": "",
          "type": "address"
        }
      ],
      "name": "users",
      "outputs": [
        {
          "internalType": "string",
          "name": "username",
          "type": "string"
        },
        {
          "internalType": "bool",
          "name": "set",
          "type": "bool"
        }
      ],
      "payable": false,
      "stateMutability": "view",
      "type": "function"
    },
    {
      "constant": false,
      "inputs": [
        {
          "internalType": "string",
          "name": "_username",
          "type": "string"
        }
      ],
      "name": "createUser",
      "outputs": [],
      "payable": false,
      "stateMutability": "nonpayable",
      "type": "function"
    },
    {
      "constant": false,
      "inputs": [],
      "name": "storeETH",
      "outputs": [],
      "payable": true,
      "stateMutability": "payable",
      "type": "function"
    },
    {
      "constant": false,
      "inputs": [
        {
          "internalType": "string",
          "name": "_title",
          "type": "string"
        },
        {
          "internalType": "string",
          "name": "_description",
          "type": "string"
        },
        {
          "internalType": "uint256",
          "name": "_amount",
          "type": "uint256"
        },
        {
          "internalType": "address",
          "name": "_contractor",
          "type": "address"
        }
      ],
      "name": "createNewSwap",
      "outputs": [],
      "payable": false,
      "stateMutability": "nonpayable",
      "type": "function"
    },
    {
      "constant": false,
      "inputs": [
        {
          "internalType": "uint256",
          "name": "_swapId",
          "type": "uint256"
        }
      ],
      "name": "checkValidity",
      "outputs": [],
      "payable": false,
      "stateMutability": "nonpayable",
      "type": "function"
    }
  ],
  "bytecode": "0x60806040526040518060400160405280600681526020017f755377617070000000000000000000000000000000000000000000000000000081525060009080519060200190620000519291906200006b565b5060006001553480156200006457600080fd5b506200011a565b828054600181600116156101000203166002900490600052602060002090601f016020900481019282601f10620000ae57805160ff1916838001178555620000df565b82800160010185558215620000df579182015b82811115620000de578251825591602001919060010190620000c1565b5b509050620000ee9190620000f2565b5090565b6200011791905b8082111562000113576000816000905550600101620000f9565b5090565b90565b61148f806200012a6000396000f3fe6080604052600436106100865760003560e01c806378a96f7e1161005957806378a96f7e146103a7578063a87430ba146103d2578063edf26d9b146104a7578063f09c582914610522578063f1ad3334146106d757610086565b806306fdde031461008b57806330640c761461011b578063507ffba5146102a457806377153fd01461036c575b600080fd5b34801561009757600080fd5b506100a06106e1565b6040518080602001828103825283818151815260200191508051906020019080838360005b838110156100e05780820151818401526020810190506100c5565b50505050905090810190601f16801561010d5780820380516001836020036101000a031916815260200191505b509250505060405180910390f35b34801561012757600080fd5b506102a26004803603608081101561013e57600080fd5b810190808035906020019064010000000081111561015b57600080fd5b82018360208201111561016d57600080fd5b8035906020019184600183028401116401000000008311171561018f57600080fd5b91908080601f016020809104026020016040519081016040528093929190818152602001838380828437600081840152601f19601f820116905080830192505050505050509192919290803590602001906401000000008111156101f257600080fd5b82018360208201111561020457600080fd5b8035906020019184600183028401116401000000008311171561022657600080fd5b91908080601f016020809104026020016040519081016040528093929190818152602001838380828437600081840152601f19601f82011690508083019250505050505050919291929080359060200190929190803573ffffffffffffffffffffffffffffffffffffffff16906020019092919050505061077f565b005b3480156102b057600080fd5b5061036a600480360360208110156102c757600080fd5b81019080803590602001906401000000008111156102e457600080fd5b8201836020820111156102f657600080fd5b8035906020019184600183028401116401000000008311171561031857600080fd5b91908080601f016020809104026020016040519081016040528093929190818152602001838380828437600081840152601f19601f820116905080830192505050505050509192919290505050610c14565b005b34801561037857600080fd5b506103a56004803603602081101561038f57600080fd5b8101908080359060200190929190505050610e27565b005b3480156103b357600080fd5b506103bc6110c3565b6040518082815260200191505060405180910390f35b3480156103de57600080fd5b50610421600480360360208110156103f557600080fd5b81019080803573ffffffffffffffffffffffffffffffffffffffff1690602001909291905050506110c9565b604051808060200183151515158152602001828103825284818151815260200191508051906020019080838360005b8381101561046b578082015181840152602081019050610450565b50505050905090810190601f1680156104985780820380516001836020036101000a031916815260200191505b50935050505060405180910390f35b3480156104b357600080fd5b506104e0600480360360208110156104ca57600080fd5b8101908080359060200190929190505050611192565b604051808273ffffffffffffffffffffffffffffffffffffffff1673ffffffffffffffffffffffffffffffffffffffff16815260200191505060405180910390f35b34801561052e57600080fd5b5061055b6004803603602081101561054557600080fd5b81019080803590602001909291905050506111ce565b604051808a815260200180602001806020018981526020018873ffffffffffffffffffffffffffffffffffffffff1673ffffffffffffffffffffffffffffffffffffffff1681526020018773ffffffffffffffffffffffffffffffffffffffff1673ffffffffffffffffffffffffffffffffffffffff16815260200186151515158152602001851515151581526020018415151515815260200183810383528b818151815260200191508051906020019080838360005b8381101561062d578082015181840152602081019050610612565b50505050905090810190601f16801561065a5780820380516001836020036101000a031916815260200191505b5083810382528a818151815260200191508051906020019080838360005b83811015610693578082015181840152602081019050610678565b50505050905090810190601f1680156106c05780820380516001836020036101000a031916815260200191505b509b50505050505050505050505060405180910390f35b6106df6113b3565b005b60008054600181600116156101000203166002900480601f0160208091040260200160405190810160405280929190818152602001828054600181600116156101000203166002900480156107775780601f1061074c57610100808354040283529160200191610777565b820191906000526020600020905b81548152906001019060200180831161075a57829003601f168201915b505050505081565b600082116107f5576040517f08c379a00000000000000000000000000000000000000000000000000000000081526004018080602001828103825260128152602001807f616d6f756e742063616e6e6f742062652030000000000000000000000000000081525060200191505060405180910390fd5b60008451141561080457600080fd5b60008351141561081357600080fd5b600073ffffffffffffffffffffffffffffffffffffffff168173ffffffffffffffffffffffffffffffffffffffff16141561084d57600080fd5b600073ffffffffffffffffffffffffffffffffffffffff163373ffffffffffffffffffffffffffffffffffffffff16141561088757600080fd5b60016000815480929190600101919050555060405180610120016040528060015481526020018581526020018481526020018381526020018273ffffffffffffffffffffffffffffffffffffffff1681526020013373ffffffffffffffffffffffffffffffffffffffff1681526020016000151581526020016000151581526020016000151581525060046000600154815260200190815260200160002060008201518160000155602082015181600101908051906020019061094b9291906113b5565b5060408201518160020190805190602001906109689291906113b5565b506060820151816003015560808201518160040160006101000a81548173ffffffffffffffffffffffffffffffffffffffff021916908373ffffffffffffffffffffffffffffffffffffffff16021790555060a08201518160050160006101000a81548173ffffffffffffffffffffffffffffffffffffffff021916908373ffffffffffffffffffffffffffffffffffffffff16021790555060c08201518160050160146101000a81548160ff02191690831515021790555060e08201518160050160156101000a81548160ff0219169083151502179055506101008201518160050160166101000a81548160ff0219169083151502179055509050507fcc0b199537e3a37c234a4799dc116e5e4053bf4294b0b2804031709b98d1aa5660015485858585336000806000604051808a815260200180602001806020018981526020018873ffffffffffffffffffffffffffffffffffffffff1673ffffffffffffffffffffffffffffffffffffffff1681526020018773ffffffffffffffffffffffffffffffffffffffff1673ffffffffffffffffffffffffffffffffffffffff16815260200186151515158152602001851515151581526020018415151515815260200183810383528b818151815260200191508051906020019080838360005b83811015610b65578082015181840152602081019050610b4a565b50505050905090810190601f168015610b925780820380516001836020036101000a031916815260200191505b5083810382528a818151815260200191508051906020019080838360005b83811015610bcb578082015181840152602081019050610bb0565b50505050905090810190601f168015610bf85780820380516001836020036101000a031916815260200191505b509b50505050505050505050505060405180910390a150505050565b600081511415610c2357600080fd5b600073ffffffffffffffffffffffffffffffffffffffff163373ffffffffffffffffffffffffffffffffffffffff161415610c5d57600080fd5b6000600360003373ffffffffffffffffffffffffffffffffffffffff1673ffffffffffffffffffffffffffffffffffffffff16815260200190815260200160002090508060010160009054906101000a900460ff1615610cbc57600080fd5b604051806040016040528083815260200160011515815250600360003373ffffffffffffffffffffffffffffffffffffffff1673ffffffffffffffffffffffffffffffffffffffff1681526020019081526020016000206000820151816000019080519060200190610d2f9291906113b5565b5060208201518160010160006101000a81548160ff0219169083151502179055509050507f793452bfa09c2f1473de9e71cf726590fccd45eb04c4be138b36826dc5d8e6263383604051808373ffffffffffffffffffffffffffffffffffffffff1673ffffffffffffffffffffffffffffffffffffffff16815260200180602001828103825283818151815260200191508051906020019080838360005b83811015610de8578082015181840152602081019050610dcd565b50505050905090810190601f168015610e155780820380516001836020036101000a031916815260200191505b50935050505060405180910390a15050565b6004600082815260200190815260200160002060040160009054906101000a900473ffffffffffffffffffffffffffffffffffffffff1673ffffffffffffffffffffffffffffffffffffffff163373ffffffffffffffffffffffffffffffffffffffff161480610ef857506004600082815260200190815260200160002060050160009054906101000a900473ffffffffffffffffffffffffffffffffffffffff1673ffffffffffffffffffffffffffffffffffffffff163373ffffffffffffffffffffffffffffffffffffffff16145b610f0157600080fd5b6004600082815260200190815260200160002060040160009054906101000a900473ffffffffffffffffffffffffffffffffffffffff1673ffffffffffffffffffffffffffffffffffffffff163373ffffffffffffffffffffffffffffffffffffffff161415610f9b5760016004600083815260200190815260200160002060050160146101000a81548160ff0219169083151502179055505b6004600082815260200190815260200160002060050160009054906101000a900473ffffffffffffffffffffffffffffffffffffffff1673ffffffffffffffffffffffffffffffffffffffff163373ffffffffffffffffffffffffffffffffffffffff1614156110355760016004600083815260200190815260200160002060050160156101000a81548160ff0219169083151502179055505b600115156004600083815260200190815260200160002060050160159054906101000a900460ff1615151480156110935750600115156004600083815260200190815260200160002060050160149054906101000a900460ff161515145b156110c057600115156004600083815260200190815260200160002060050160169054906101000a905050505b50565b60015481565b6003602052806000526040600020600091509050806000018054600181600116156101000203166002900480601f0160208091040260200160405190810160405280929190818152602001828054600181600116156101000203166002900480156111755780601f1061114a57610100808354040283529160200191611175565b820191906000526020600020905b81548152906001019060200180831161115857829003601f168201915b5050505050908060010160009054906101000a900460ff16905082565b6002818154811061119f57fe5b906000526020600020016000915054906101000a900473ffffffffffffffffffffffffffffffffffffffff1681565b6004602052806000526040600020600091509050806000015490806001018054600181600116156101000203166002900480601f0160208091040260200160405190810160405280929190818152602001828054600181600116156101000203166002900480156112805780601f1061125557610100808354040283529160200191611280565b820191906000526020600020905b81548152906001019060200180831161126357829003601f168201915b505050505090806002018054600181600116156101000203166002900480601f01602080910402602001604051908101604052809291908181526020018280546001816001161561010002031660029004801561131e5780601f106112f35761010080835404028352916020019161131e565b820191906000526020600020905b81548152906001019060200180831161130157829003601f168201915b5050505050908060030154908060040160009054906101000a900473ffffffffffffffffffffffffffffffffffffffff16908060050160009054906101000a900473ffffffffffffffffffffffffffffffffffffffff16908060050160149054906101000a900460ff16908060050160159054906101000a900460ff16908060050160169054906101000a900460ff16905089565b565b828054600181600116156101000203166002900490600052602060002090601f016020900481019282601f106113f657805160ff1916838001178555611424565b82800160010185558215611424579182015b82811115611423578251825591602001919060010190611408565b5b5090506114319190611435565b5090565b61145791905b8082111561145357600081600090555060010161143b565b5090565b9056fea265627a7a723158208a0a39aedaa14ba4073d1d290bf4a1e3972a2af8e5942d54d2a64047c9af3fe064736f6c63430005100032",
  "source": "pragma solidity >=0.5.0;\n\ncontract uSwapp {\n    string public name = \"uSwapp\";\n    uint256 public swapsCount = 0;\n\n    address[] public addresses;\n\n    constructor() public {}\n\n    // Set user\n    mapping(address => User) public users;\n\n    // Creat user\n    function createUser(string memory _username) public {\n        require(bytes(_username).length != 0);\n        // Make sure uploader address exists\n        require(msg.sender != address(0));\n        User storage user = users[msg.sender];\n        // Check that the user did not already exist:\n        require(!user.set);\n        //Store the user\n        users[msg.sender] = User({username: _username, set: true});\n        emit userCreated(msg.sender, _username);\n    }\n\n    event userCreated(address userAddress, string username);\n\n    struct User {\n        string username;\n        bool set; // This boolean is used to differentiate between unset and zero struct values\n    }\n\n    mapping(uint256 => Swap) public swaps;\n\n    struct Swap {\n        uint256 id;\n        string title;\n        string description;\n        uint256 ammount;\n        address contractor;\n        address creator;\n        bool doneContractor;\n        bool doneCreator;\n        bool done;\n    }\n\n    event SwapCreated(\n        uint256 id,\n        string title,\n        string description,\n        uint256 ammount,\n        address contractor,\n        address creator,\n        bool doneContractor,\n        bool doneCreator,\n        bool done\n    );\n\n    // Create a new contract\n    // Todo Widhtdraw the ammount for the contract\n    function storeETH() public payable {}\n\n    // Think obout how is making the contract and how we could do it so it works\n    // In boths ways\n    function createNewSwap(\n        string memory _title,\n        string memory _description,\n        uint256 _amount,\n        address _contractor\n    ) public {\n        require(_amount > 0, \"amount cannot be 0\");\n        // check validity of swap info\n        require(bytes(_title).length != 0);\n        require(bytes(_description).length != 0);\n        // Check that contract address exists\n        require(_contractor != address(0));\n        // Make sure uploader address exists\n        require(msg.sender != address(0));\n\n        swapsCount++;\n        swaps[swapsCount] = Swap(\n            swapsCount,\n            _title,\n            _description,\n            _amount,\n            _contractor,\n            msg.sender,\n            false,\n            false,\n            false\n        );\n        // emit event\n        emit SwapCreated(\n            swapsCount,\n            _title,\n            _description,\n            _amount,\n            _contractor,\n            msg.sender,\n            false,\n            false,\n            false\n        );\n    }\n\n    // Both parties check the list on done\n    function checkValidity(uint256 _swapId) public {\n        // Check that the sender belong two the contract\n        require(\n            msg.sender == swaps[_swapId].contractor ||\n                msg.sender == swaps[_swapId].creator\n        );\n        // check if is the contractor\n        if (msg.sender == swaps[_swapId].contractor) {\n            swaps[_swapId].doneContractor = true;\n        }\n        // Check if is the creator\n        if (msg.sender == swaps[_swapId].creator) {\n            swaps[_swapId].doneCreator = true;\n        }\n        // If both are check are check mark done the contract\n        if (\n            swaps[_swapId].doneCreator == true &&\n            swaps[_swapId].doneContractor == true\n        ) {\n            swaps[_swapId].done == true;\n        }\n    }\n\n    // Introduce tokens to the contract\n    // Set other user contract\n\n    // Transfer token if the job is done\n}\n",
  "sourcePath": "/Users/davidbarrero/Desktop/fun/uSwapp/src/contracts/Uswapp.sol",
  "compiler": {
    "name": "solc",
    "version": "0.5.16+commit.9c3226ce.Emscripten.clang"
  },
  "schemaVersion": "3.3.2",
  "updatedAt": "2020-11-20T02:34:49.220Z",
  "networkType": "ethereum",
  "devdoc": {
    "methods": {}
  },
  "userdoc": {
    "methods": {}
  }
}